{
  "contractName": "BridgePublic",
  "abi": [
    {
      "inputs": [
        {
          "internalType": "contract IERC20MintBurn",
          "name": "token_",
          "type": "address"
        }
      ],
      "stateMutability": "nonpayable",
      "type": "constructor"
    },
    {
      "anonymous": false,
      "inputs": [
        {
          "indexed": true,
          "internalType": "address",
          "name": "userAddress",
          "type": "address"
        },
        {
          "indexed": false,
          "internalType": "uint256",
          "name": "amount",
          "type": "uint256"
        }
      ],
      "name": "BurnedFromGoldToken",
      "type": "event"
    },
    {
      "anonymous": false,
      "inputs": [
        {
          "indexed": true,
          "internalType": "address",
          "name": "userAddress",
          "type": "address"
        },
        {
          "indexed": false,
          "internalType": "uint256",
          "name": "amount",
          "type": "uint256"
        }
      ],
      "name": "MintedToGoldToken",
      "type": "event"
    },
    {
      "inputs": [],
      "name": "owner",
      "outputs": [
        {
          "internalType": "address",
          "name": "",
          "type": "address"
        }
      ],
      "stateMutability": "view",
      "type": "function"
    },
    {
      "inputs": [
        {
          "internalType": "uint256",
          "name": "",
          "type": "uint256"
        }
      ],
      "name": "toPrivateNonces",
      "outputs": [
        {
          "internalType": "bool",
          "name": "",
          "type": "bool"
        }
      ],
      "stateMutability": "view",
      "type": "function"
    },
    {
      "inputs": [
        {
          "internalType": "uint256",
          "name": "",
          "type": "uint256"
        }
      ],
      "name": "toPublicNonces",
      "outputs": [
        {
          "internalType": "bool",
          "name": "",
          "type": "bool"
        }
      ],
      "stateMutability": "view",
      "type": "function"
    },
    {
      "inputs": [],
      "name": "token",
      "outputs": [
        {
          "internalType": "contract IERC20MintBurn",
          "name": "",
          "type": "address"
        }
      ],
      "stateMutability": "view",
      "type": "function"
    },
    {
      "inputs": [
        {
          "internalType": "address",
          "name": "gogoService",
          "type": "address"
        }
      ],
      "name": "addGogoServiceAddress",
      "outputs": [],
      "stateMutability": "nonpayable",
      "type": "function"
    },
    {
      "inputs": [
        {
          "internalType": "address",
          "name": "gogoService",
          "type": "address"
        }
      ],
      "name": "removeGogoServiceAddress",
      "outputs": [],
      "stateMutability": "nonpayable",
      "type": "function"
    },
    {
      "inputs": [
        {
          "internalType": "address",
          "name": "userAddress_",
          "type": "address"
        },
        {
          "internalType": "uint256",
          "name": "amount_",
          "type": "uint256"
        },
        {
          "internalType": "uint256",
          "name": "nonce_",
          "type": "uint256"
        },
        {
          "internalType": "bool",
          "name": "direction_",
          "type": "bool"
        },
        {
          "internalType": "bytes",
          "name": "signature_",
          "type": "bytes"
        }
      ],
      "name": "receiveFromPrivateBridge",
      "outputs": [],
      "stateMutability": "nonpayable",
      "type": "function"
    },
    {
      "inputs": [
        {
          "internalType": "address",
          "name": "userAddress_",
          "type": "address"
        },
        {
          "internalType": "uint256",
          "name": "amount_",
          "type": "uint256"
        },
        {
          "internalType": "uint256",
          "name": "nonce_",
          "type": "uint256"
        },
        {
          "internalType": "bool",
          "name": "direction_",
          "type": "bool"
        },
        {
          "internalType": "bytes",
          "name": "signature_",
          "type": "bytes"
        }
      ],
      "name": "sendToPrivateBridge",
      "outputs": [],
      "stateMutability": "nonpayable",
      "type": "function"
    },
    {
      "inputs": [
        {
          "internalType": "address",
          "name": "userAddress_",
          "type": "address"
        },
        {
          "internalType": "uint256",
          "name": "amount_",
          "type": "uint256"
        },
        {
          "internalType": "uint256",
          "name": "nonce_",
          "type": "uint256"
        },
        {
          "internalType": "bool",
          "name": "direction_",
          "type": "bool"
        }
      ],
      "name": "formSigningData",
      "outputs": [
        {
          "internalType": "bytes32",
          "name": "",
          "type": "bytes32"
        }
      ],
      "stateMutability": "pure",
      "type": "function"
    },
    {
      "inputs": [
        {
          "internalType": "address",
          "name": "userAddress_",
          "type": "address"
        },
        {
          "internalType": "uint256",
          "name": "amount_",
          "type": "uint256"
        },
        {
          "internalType": "uint256",
          "name": "nonce_",
          "type": "uint256"
        },
        {
          "internalType": "bool",
          "name": "direction_",
          "type": "bool"
        },
        {
          "internalType": "bytes",
          "name": "signature_",
          "type": "bytes"
        }
      ],
      "name": "recoverSigner",
      "outputs": [
        {
          "internalType": "address",
          "name": "",
          "type": "address"
        }
      ],
      "stateMutability": "pure",
      "type": "function"
    }
  ],
  "bytecode": "0x60806040523480156200001157600080fd5b5060405162001bb238038062001bb28339818101604052810190620000379190620000d7565b80600460006101000a81548173ffffffffffffffffffffffffffffffffffffffff021916908373ffffffffffffffffffffffffffffffffffffffff16021790555033600360006101000a81548173ffffffffffffffffffffffffffffffffffffffff021916908373ffffffffffffffffffffffffffffffffffffffff1602179055505062000165565b600081519050620000d1816200014b565b92915050565b600060208284031215620000ea57600080fd5b6000620000fa84828501620000c0565b91505092915050565b600062000110826200012b565b9050919050565b6000620001248262000103565b9050919050565b600073ffffffffffffffffffffffffffffffffffffffff82169050919050565b620001568162000117565b81146200016257600080fd5b50565b611a3d80620001756000396000f3fe608060405234801561001057600080fd5b506004361061009e5760003560e01c806353ee9cf61161006657806353ee9cf61461016b5780635a5d57e5146101875780637f710d92146101a35780638da5cb5b146101d3578063fc0c546a146101f15761009e565b80630f858cb9146100a3578063159b86f6146100bf5780632b111c01146100ef5780633a9af6841461011f5780635063e5e41461014f575b600080fd5b6100bd60048036038101906100b89190610e8f565b61020f565b005b6100d960048036038101906100d49190610f1e565b610463565b6040516100e691906112aa565b60405180910390f35b61010960048036038101906101049190610e2c565b610483565b60405161011691906112c5565b60405180910390f35b61013960048036038101906101349190610e8f565b6104bc565b6040516101469190611266565b60405180910390f35b61016960048036038101906101649190610e8f565b6104eb565b005b61018560048036038101906101809190610e03565b610740565b005b6101a1600480360381019061019c9190610e03565b6108be565b005b6101bd60048036038101906101b89190610f1e565b610a3c565b6040516101ca91906112aa565b60405180910390f35b6101db610a5c565b6040516101e89190611266565b60405180910390f35b6101f9610a82565b6040516102069190611325565b60405180910390f35b6000151582151514610256576040517f08c379a000000000000000000000000000000000000000000000000000000000815260040161024d90611400565b60405180910390fd5b6002600061026787878787876104bc565b73ffffffffffffffffffffffffffffffffffffffff1673ffffffffffffffffffffffffffffffffffffffff16815260200190815260200160002060009054906101000a900460ff166102ee576040517f08c379a00000000000000000000000000000000000000000000000000000000081526004016102e5906113c0565b60405180910390fd5b6000151560008085815260200190815260200160002060009054906101000a900460ff16151514610354576040517f08c379a000000000000000000000000000000000000000000000000000000000815260040161034b906113a0565b60405180910390fd5b600160008085815260200190815260200160002060006101000a81548160ff021916908315150217905550600460009054906101000a900473ffffffffffffffffffffffffffffffffffffffff1673ffffffffffffffffffffffffffffffffffffffff166340c10f1986866040518363ffffffff1660e01b81526004016103dc929190611281565b600060405180830381600087803b1580156103f657600080fd5b505af115801561040a573d6000803e3d6000fd5b505050508473ffffffffffffffffffffffffffffffffffffffff167fabef6a9b77e3af032820de21f6d5b465911bf5f838bb52725a0610d8de9c55d68560405161045491906114c0565b60405180910390a25050505050565b60016020528060005260406000206000915054906101000a900460ff1681565b60008484848460405160200161049c949392919061120d565b604051602081830303815290604052805190602001209050949350505050565b6000806104cb87878787610483565b90506104df6104d982610aa8565b84610ad8565b91505095945050505050565b6001151582151514610532576040517f08c379a000000000000000000000000000000000000000000000000000000000815260040161052990611380565b60405180910390fd5b6002600061054387878787876104bc565b73ffffffffffffffffffffffffffffffffffffffff1673ffffffffffffffffffffffffffffffffffffffff16815260200190815260200160002060009054906101000a900460ff166105ca576040517f08c379a00000000000000000000000000000000000000000000000000000000081526004016105c1906113c0565b60405180910390fd5b600015156001600085815260200190815260200160002060009054906101000a900460ff16151514610631576040517f08c379a000000000000000000000000000000000000000000000000000000000815260040161062890611480565b60405180910390fd5b600180600085815260200190815260200160002060006101000a81548160ff021916908315150217905550600460009054906101000a900473ffffffffffffffffffffffffffffffffffffffff1673ffffffffffffffffffffffffffffffffffffffff16639dc29fac86866040518363ffffffff1660e01b81526004016106b9929190611281565b600060405180830381600087803b1580156106d357600080fd5b505af11580156106e7573d6000803e3d6000fd5b505050508473ffffffffffffffffffffffffffffffffffffffff167fc595688999fccd8832af18e10813ad505d9ab879aafccaf3bb9785956a362bcb8560405161073191906114c0565b60405180910390a25050505050565b600360009054906101000a900473ffffffffffffffffffffffffffffffffffffffff1673ffffffffffffffffffffffffffffffffffffffff163373ffffffffffffffffffffffffffffffffffffffff16146107d0576040517f08c379a00000000000000000000000000000000000000000000000000000000081526004016107c7906114a0565b60405180910390fd5b60001515600260008373ffffffffffffffffffffffffffffffffffffffff1673ffffffffffffffffffffffffffffffffffffffff16815260200190815260200160002060009054906101000a900460ff16151514610863576040517f08c379a000000000000000000000000000000000000000000000000000000000815260040161085a90611460565b60405180910390fd5b6001600260008373ffffffffffffffffffffffffffffffffffffffff1673ffffffffffffffffffffffffffffffffffffffff16815260200190815260200160002060006101000a81548160ff02191690831515021790555050565b600360009054906101000a900473ffffffffffffffffffffffffffffffffffffffff1673ffffffffffffffffffffffffffffffffffffffff163373ffffffffffffffffffffffffffffffffffffffff161461094e576040517f08c379a0000000000000000000000000000000000000000000000000000000008152600401610945906114a0565b60405180910390fd5b60011515600260008373ffffffffffffffffffffffffffffffffffffffff1673ffffffffffffffffffffffffffffffffffffffff16815260200190815260200160002060009054906101000a900460ff161515146109e1576040517f08c379a00000000000000000000000000000000000000000000000000000000081526004016109d890611440565b60405180910390fd5b6000600260008373ffffffffffffffffffffffffffffffffffffffff1673ffffffffffffffffffffffffffffffffffffffff16815260200190815260200160002060006101000a81548160ff02191690831515021790555050565b60006020528060005260406000206000915054906101000a900460ff1681565b600360009054906101000a900473ffffffffffffffffffffffffffffffffffffffff1681565b600460009054906101000a900473ffffffffffffffffffffffffffffffffffffffff1681565b600081604051602001610abb91906111e7565b604051602081830303815290604052805190602001209050919050565b6000604182511415610b175760008060006020850151925060408501519150606085015160001a9050610b0d86828585610b87565b9350505050610b81565b604082511415610b46576000806020840151915060408401519050610b3d858383610d12565b92505050610b81565b6040517f08c379a0000000000000000000000000000000000000000000000000000000008152600401610b7890611360565b60405180910390fd5b92915050565b60007f7fffffffffffffffffffffffffffffff5d576e7357a4501ddfe92f46681b20a08260001c1115610bef576040517f08c379a0000000000000000000000000000000000000000000000000000000008152600401610be6906113e0565b60405180910390fd5b601b8460ff161480610c045750601c8460ff16145b610c43576040517f08c379a0000000000000000000000000000000000000000000000000000000008152600401610c3a90611420565b60405180910390fd5b600060018686868660405160008152602001604052604051610c6894939291906112e0565b6020604051602081039080840390855afa158015610c8a573d6000803e3d6000fd5b505050602060405103519050600073ffffffffffffffffffffffffffffffffffffffff168173ffffffffffffffffffffffffffffffffffffffff161415610d06576040517f08c379a0000000000000000000000000000000000000000000000000000000008152600401610cfd90611340565b60405180910390fd5b80915050949350505050565b60008060007f7fffffffffffffffffffffffffffffffffffffffffffffffffffffffffffffff84169150601b8460ff1c019050610d5186828785610b87565b925050509392505050565b6000610d6f610d6a84611500565b6114db565b905082815260208101848484011115610d8757600080fd5b610d928482856115d0565b509392505050565b600081359050610da9816119c2565b92915050565b600081359050610dbe816119d9565b92915050565b600082601f830112610dd557600080fd5b8135610de5848260208601610d5c565b91505092915050565b600081359050610dfd816119f0565b92915050565b600060208284031215610e1557600080fd5b6000610e2384828501610d9a565b91505092915050565b60008060008060808587031215610e4257600080fd5b6000610e5087828801610d9a565b9450506020610e6187828801610dee565b9350506040610e7287828801610dee565b9250506060610e8387828801610daf565b91505092959194509250565b600080600080600060a08688031215610ea757600080fd5b6000610eb588828901610d9a565b9550506020610ec688828901610dee565b9450506040610ed788828901610dee565b9350506060610ee888828901610daf565b925050608086013567ffffffffffffffff811115610f0557600080fd5b610f1188828901610dc4565b9150509295509295909350565b600060208284031215610f3057600080fd5b6000610f3e84828501610dee565b91505092915050565b610f508161154d565b82525050565b610f67610f628261154d565b611610565b82525050565b610f768161155f565b82525050565b610f8d610f888261155f565b611622565b82525050565b610f9c8161156b565b82525050565b610fb3610fae8261156b565b611634565b82525050565b610fc2816115ac565b82525050565b6000610fd5601883611531565b9150610fe0826116c6565b602082019050919050565b6000610ff8601f83611531565b9150611003826116ef565b602082019050919050565b600061101b601c83611542565b915061102682611718565b601c82019050919050565b600061103e600c83611542565b915061104982611741565b600c82019050919050565b6000611061601683611531565b915061106c8261176a565b602082019050919050565b6000611084602583611531565b915061108f82611793565b604082019050919050565b60006110a7602c83611531565b91506110b2826117e2565b604082019050919050565b60006110ca602283611531565b91506110d582611831565b604082019050919050565b60006110ed601783611531565b91506110f882611880565b602082019050919050565b6000611110602283611531565b915061111b826118a9565b604082019050919050565b6000611133601b83611531565b915061113e826118f8565b602082019050919050565b6000611156601a83611531565b915061116182611921565b602082019050919050565b6000611179602683611531565b91506111848261194a565b604082019050919050565b600061119c601c83611531565b91506111a782611999565b602082019050919050565b6111bb81611595565b82525050565b6111d26111cd82611595565b611650565b82525050565b6111e18161159f565b82525050565b60006111f28261100e565b91506111fe8284610fa2565b60208201915081905092915050565b600061121882611031565b91506112248287610f56565b60148201915061123482866111c1565b60208201915061124482856111c1565b6020820191506112548284610f7c565b60018201915081905095945050505050565b600060208201905061127b6000830184610f47565b92915050565b60006040820190506112966000830185610f47565b6112a360208301846111b2565b9392505050565b60006020820190506112bf6000830184610f6d565b92915050565b60006020820190506112da6000830184610f93565b92915050565b60006080820190506112f56000830187610f93565b61130260208301866111d8565b61130f6040830185610f93565b61131c6060830184610f93565b95945050505050565b600060208201905061133a6000830184610fb9565b92915050565b6000602082019050818103600083015261135981610fc8565b9050919050565b6000602082019050818103600083015261137981610feb565b9050919050565b6000602082019050818103600083015261139981611054565b9050919050565b600060208201905081810360008301526113b981611077565b9050919050565b600060208201905081810360008301526113d98161109a565b9050919050565b600060208201905081810360008301526113f9816110bd565b9050919050565b60006020820190508181036000830152611419816110e0565b9050919050565b6000602082019050818103600083015261143981611103565b9050919050565b6000602082019050818103600083015261145981611126565b9050919050565b6000602082019050818103600083015261147981611149565b9050919050565b600060208201905081810360008301526114998161116c565b9050919050565b600060208201905081810360008301526114b98161118f565b9050919050565b60006020820190506114d560008301846111b2565b92915050565b60006114e56114f6565b90506114f182826115df565b919050565b6000604051905090565b600067ffffffffffffffff82111561151b5761151a61166c565b5b6115248261169b565b9050602081019050919050565b600082825260208201905092915050565b600081905092915050565b600061155882611575565b9050919050565b60008115159050919050565b6000819050919050565b600073ffffffffffffffffffffffffffffffffffffffff82169050919050565b6000819050919050565b600060ff82169050919050565b60006115b7826115be565b9050919050565b60006115c982611575565b9050919050565b82818337600083830152505050565b6115e88261169b565b810181811067ffffffffffffffff821117156116075761160661166c565b5b80604052505050565b600061161b8261163e565b9050919050565b600061162d8261165a565b9050919050565b6000819050919050565b6000611649826116b9565b9050919050565b6000819050919050565b6000611665826116ac565b9050919050565b7f4e487b7100000000000000000000000000000000000000000000000000000000600052604160045260246000fd5b6000601f19601f8301169050919050565b60008160f81b9050919050565b60008160601b9050919050565b7f45434453413a20696e76616c6964207369676e61747572650000000000000000600082015250565b7f45434453413a20696e76616c6964207369676e6174757265206c656e67746800600082015250565b7f19457468657265756d205369676e6564204d6573736167653a0a333200000000600082015250565b7f474f474f42726964676556310000000000000000000000000000000000000000600082015250565b7f646972656374696f6e206d757374206265207472756500000000000000000000600082015250565b7f6e6f6e636520696e20746f5075626c69634e6f6e63657320616c72656164792060008201527f6578697374000000000000000000000000000000000000000000000000000000602082015250565b7f7265636f76657265642061646472657373206973206e6f7420676f676f53657260008201527f7669636520616464726573730000000000000000000000000000000000000000602082015250565b7f45434453413a20696e76616c6964207369676e6174757265202773272076616c60008201527f7565000000000000000000000000000000000000000000000000000000000000602082015250565b7f646972656374696f6e206d7573742062652066616c7365000000000000000000600082015250565b7f45434453413a20696e76616c6964207369676e6174757265202776272076616c60008201527f7565000000000000000000000000000000000000000000000000000000000000602082015250565b7f476f676f5365727669636520616c72656164792072656d6f7665640000000000600082015250565b7f476f676f5365727669636520616c726561647920736574746564000000000000600082015250565b7f6e6f6e636520696e20746f507269766174654e6f6e63657320616c726561647960008201527f2065786973740000000000000000000000000000000000000000000000000000602082015250565b7f46756e6374696f6e2063616e2063616c6c206f6e6c79206f776e657200000000600082015250565b6119cb8161154d565b81146119d657600080fd5b50565b6119e28161155f565b81146119ed57600080fd5b50565b6119f981611595565b8114611a0457600080fd5b5056fea26469706673582212201497c9b238703e393a3a5e5aec1ac3b0996dd22d7fbcf507b964bbd36a64269064736f6c63430008040033",
  "immutableReferences": {},
  "source": "// SPDX-License-Identifier: MIT\npragma solidity ^0.8.4;\n\nimport \"@openzeppelin/contracts/utils/cryptography/ECDSA.sol\";\nimport \"./IERC20MintBurn.sol\";\n\ncontract BridgePublic {\n    mapping(uint256 => bool) public toPublicNonces;\n\n    mapping(uint256 => bool) public toPrivateNonces;\n\n    // address of service that signs the transactions\n    mapping(address => bool) isGogoService;\n    // address of contract creator\n    address public owner;\n    // GoldToken address\n    IERC20MintBurn public token;\n\n    modifier onlyOwner() {\n        require(msg.sender == owner, \"Function can call only owner\");\n        _;\n    }\n\n    constructor(IERC20MintBurn token_) {\n        token = token_;\n        owner = msg.sender;\n    }\n\n    event MintedToGoldToken(address indexed userAddress, uint256 amount);\n    event BurnedFromGoldToken(address indexed userAddress, uint256 amount);\n\n    function addGogoServiceAddress(address gogoService) public onlyOwner {\n        require(isGogoService[gogoService] == false, \"GogoService already setted\");\n        isGogoService[gogoService] = true;\n    }\n\n    function removeGogoServiceAddress(address gogoService) public onlyOwner {\n        require(isGogoService[gogoService] == true, \"GogoService already removed\");\n        isGogoService[gogoService] = false;\n    }\n\n    function receiveFromPrivateBridge(address userAddress_, uint256 amount_, uint256 nonce_, bool direction_, bytes memory signature_) public {\n        require(direction_ == false, \"direction must be false\");\n        require(isGogoService[recoverSigner(userAddress_, amount_, nonce_, direction_, signature_)], \"recovered address is not gogoService address\");\n\n        require(toPublicNonces[nonce_] == false, \"nonce in toPublicNonces already exist\");\n        toPublicNonces[nonce_] = true;\n\n        token.mint(userAddress_, amount_);\n        emit MintedToGoldToken(userAddress_, amount_);\n    }\n\n    function sendToPrivateBridge(address userAddress_, uint256 amount_, uint256 nonce_, bool direction_, bytes memory signature_) public {\n        require(direction_ == true, \"direction must be true\");\n        require(isGogoService[recoverSigner(userAddress_, amount_, nonce_, direction_, signature_)], \"recovered address is not gogoService address\");\n\n        require(toPrivateNonces[nonce_] == false, \"nonce in toPrivateNonces already exist\");\n        toPrivateNonces[nonce_] = true;\n\n        token.burn(userAddress_, amount_);\n        emit BurnedFromGoldToken(userAddress_, amount_);\n    }\n\n    function formSigningData(address userAddress_, uint256 amount_, uint256 nonce_, bool direction_) public pure returns (bytes32) {\n        return keccak256(abi.encodePacked(\"GOGOBridgeV1\", userAddress_, amount_, nonce_, direction_));\n    }\n\n    function recoverSigner(address userAddress_, uint256 amount_, uint256 nonce_, bool direction_, bytes memory signature_) public pure returns (address) {\n        bytes32 dataHash__ = formSigningData(userAddress_, amount_, nonce_, direction_);\n\n        return ECDSA.recover(ECDSA.toEthSignedMessageHash(dataHash__), signature_);\n    }\n}\n",
  "sourcePath": "/home/vahe/development/gogo-bridge/contracts/BridgePublic.sol",
  "compiler": {
    "name": "solc",
    "version": "0.8.4+commit.c7e474f2.Emscripten.clang"
  },
  "schemaVersion": "3.4.1",
  "updatedAt": "2021-08-24T12:59:26.792Z",
  "devdoc": {
    "kind": "dev",
    "methods": {},
    "version": 1
  },
  "userdoc": {
    "kind": "user",
    "methods": {},
    "version": 1
  }
}