{
  "contractName": "GoldToken",
  "abi": [
    {
      "inputs": [],
      "stateMutability": "nonpayable",
      "type": "constructor"
    },
    {
      "anonymous": false,
      "inputs": [
        {
          "indexed": true,
          "internalType": "address",
          "name": "owner",
          "type": "address"
        },
        {
          "indexed": true,
          "internalType": "address",
          "name": "spender",
          "type": "address"
        },
        {
          "indexed": false,
          "internalType": "uint256",
          "name": "value",
          "type": "uint256"
        }
      ],
      "name": "Approval",
      "type": "event"
    },
    {
      "anonymous": false,
      "inputs": [
        {
          "indexed": false,
          "internalType": "uint8",
          "name": "role",
          "type": "uint8"
        },
        {
          "indexed": false,
          "internalType": "address",
          "name": "account",
          "type": "address"
        },
        {
          "indexed": false,
          "internalType": "address",
          "name": "admin",
          "type": "address"
        }
      ],
      "name": "RoleGranted",
      "type": "event"
    },
    {
      "anonymous": false,
      "inputs": [
        {
          "indexed": false,
          "internalType": "uint8",
          "name": "role",
          "type": "uint8"
        },
        {
          "indexed": false,
          "internalType": "uint16",
          "name": "newTxhFee",
          "type": "uint16"
        }
      ],
      "name": "RoleTransactionFeeChanged",
      "type": "event"
    },
    {
      "anonymous": false,
      "inputs": [
        {
          "indexed": false,
          "internalType": "uint256",
          "name": "amount",
          "type": "uint256"
        }
      ],
      "name": "TransactionFeeCollected",
      "type": "event"
    },
    {
      "anonymous": false,
      "inputs": [
        {
          "indexed": true,
          "internalType": "address",
          "name": "from",
          "type": "address"
        },
        {
          "indexed": true,
          "internalType": "address",
          "name": "to",
          "type": "address"
        },
        {
          "indexed": false,
          "internalType": "uint256",
          "name": "value",
          "type": "uint256"
        }
      ],
      "name": "Transfer",
      "type": "event"
    },
    {
      "inputs": [],
      "name": "ADMIN",
      "outputs": [
        {
          "internalType": "uint8",
          "name": "",
          "type": "uint8"
        }
      ],
      "stateMutability": "view",
      "type": "function"
    },
    {
      "inputs": [],
      "name": "ROLE_1",
      "outputs": [
        {
          "internalType": "uint8",
          "name": "",
          "type": "uint8"
        }
      ],
      "stateMutability": "view",
      "type": "function"
    },
    {
      "inputs": [],
      "name": "ROLE_2",
      "outputs": [
        {
          "internalType": "uint8",
          "name": "",
          "type": "uint8"
        }
      ],
      "stateMutability": "view",
      "type": "function"
    },
    {
      "inputs": [],
      "name": "ROLE_3",
      "outputs": [
        {
          "internalType": "uint8",
          "name": "",
          "type": "uint8"
        }
      ],
      "stateMutability": "view",
      "type": "function"
    },
    {
      "inputs": [],
      "name": "ROLE_4",
      "outputs": [
        {
          "internalType": "uint8",
          "name": "",
          "type": "uint8"
        }
      ],
      "stateMutability": "view",
      "type": "function"
    },
    {
      "inputs": [],
      "name": "ROLE_5",
      "outputs": [
        {
          "internalType": "uint8",
          "name": "",
          "type": "uint8"
        }
      ],
      "stateMutability": "view",
      "type": "function"
    },
    {
      "inputs": [],
      "name": "ROLE_6",
      "outputs": [
        {
          "internalType": "uint8",
          "name": "",
          "type": "uint8"
        }
      ],
      "stateMutability": "view",
      "type": "function"
    },
    {
      "inputs": [],
      "name": "ROLE_7",
      "outputs": [
        {
          "internalType": "uint8",
          "name": "",
          "type": "uint8"
        }
      ],
      "stateMutability": "view",
      "type": "function"
    },
    {
      "inputs": [],
      "name": "ROLE_8",
      "outputs": [
        {
          "internalType": "uint8",
          "name": "",
          "type": "uint8"
        }
      ],
      "stateMutability": "view",
      "type": "function"
    },
    {
      "inputs": [],
      "name": "USER",
      "outputs": [
        {
          "internalType": "uint8",
          "name": "",
          "type": "uint8"
        }
      ],
      "stateMutability": "view",
      "type": "function"
    },
    {
      "inputs": [
        {
          "internalType": "address",
          "name": "",
          "type": "address"
        }
      ],
      "name": "addressToRole",
      "outputs": [
        {
          "internalType": "uint8",
          "name": "",
          "type": "uint8"
        }
      ],
      "stateMutability": "view",
      "type": "function"
    },
    {
      "inputs": [],
      "name": "bridgeAddress",
      "outputs": [
        {
          "internalType": "address",
          "name": "",
          "type": "address"
        }
      ],
      "stateMutability": "view",
      "type": "function"
    },
    {
      "inputs": [
        {
          "internalType": "uint8",
          "name": "role",
          "type": "uint8"
        },
        {
          "internalType": "address",
          "name": "account",
          "type": "address"
        }
      ],
      "name": "grantRole",
      "outputs": [],
      "stateMutability": "nonpayable",
      "type": "function"
    },
    {
      "inputs": [
        {
          "internalType": "uint8",
          "name": "",
          "type": "uint8"
        }
      ],
      "name": "roleTxnFee",
      "outputs": [
        {
          "internalType": "uint16",
          "name": "",
          "type": "uint16"
        }
      ],
      "stateMutability": "view",
      "type": "function"
    },
    {
      "inputs": [
        {
          "internalType": "uint8",
          "name": "role",
          "type": "uint8"
        },
        {
          "internalType": "uint16",
          "name": "txhFee",
          "type": "uint16"
        }
      ],
      "name": "setRoleTxnFee",
      "outputs": [],
      "stateMutability": "nonpayable",
      "type": "function"
    },
    {
      "inputs": [],
      "name": "transactionFeeCollector",
      "outputs": [
        {
          "internalType": "address",
          "name": "",
          "type": "address"
        }
      ],
      "stateMutability": "view",
      "type": "function"
    },
    {
      "inputs": [
        {
          "internalType": "address",
          "name": "newBridgeAddress",
          "type": "address"
        }
      ],
      "name": "setBridgeAddress",
      "outputs": [],
      "stateMutability": "nonpayable",
      "type": "function"
    },
    {
      "inputs": [],
      "name": "name",
      "outputs": [
        {
          "internalType": "string",
          "name": "",
          "type": "string"
        }
      ],
      "stateMutability": "pure",
      "type": "function"
    },
    {
      "inputs": [],
      "name": "symbol",
      "outputs": [
        {
          "internalType": "string",
          "name": "",
          "type": "string"
        }
      ],
      "stateMutability": "pure",
      "type": "function"
    },
    {
      "inputs": [],
      "name": "decimals",
      "outputs": [
        {
          "internalType": "uint8",
          "name": "",
          "type": "uint8"
        }
      ],
      "stateMutability": "pure",
      "type": "function"
    },
    {
      "inputs": [],
      "name": "totalSupply",
      "outputs": [
        {
          "internalType": "uint256",
          "name": "",
          "type": "uint256"
        }
      ],
      "stateMutability": "view",
      "type": "function"
    },
    {
      "inputs": [
        {
          "internalType": "address",
          "name": "account",
          "type": "address"
        }
      ],
      "name": "balanceOf",
      "outputs": [
        {
          "internalType": "uint256",
          "name": "",
          "type": "uint256"
        }
      ],
      "stateMutability": "view",
      "type": "function"
    },
    {
      "inputs": [
        {
          "internalType": "address",
          "name": "recipient",
          "type": "address"
        },
        {
          "internalType": "uint256",
          "name": "amount",
          "type": "uint256"
        }
      ],
      "name": "transfer",
      "outputs": [
        {
          "internalType": "bool",
          "name": "",
          "type": "bool"
        }
      ],
      "stateMutability": "nonpayable",
      "type": "function"
    },
    {
      "inputs": [
        {
          "internalType": "address",
          "name": "owner",
          "type": "address"
        },
        {
          "internalType": "address",
          "name": "spender",
          "type": "address"
        }
      ],
      "name": "allowance",
      "outputs": [
        {
          "internalType": "uint256",
          "name": "",
          "type": "uint256"
        }
      ],
      "stateMutability": "view",
      "type": "function"
    },
    {
      "inputs": [
        {
          "internalType": "address",
          "name": "spender",
          "type": "address"
        },
        {
          "internalType": "uint256",
          "name": "amount",
          "type": "uint256"
        }
      ],
      "name": "approve",
      "outputs": [
        {
          "internalType": "bool",
          "name": "",
          "type": "bool"
        }
      ],
      "stateMutability": "nonpayable",
      "type": "function"
    },
    {
      "inputs": [
        {
          "internalType": "address",
          "name": "sender",
          "type": "address"
        },
        {
          "internalType": "address",
          "name": "recipient",
          "type": "address"
        },
        {
          "internalType": "uint256",
          "name": "amount",
          "type": "uint256"
        }
      ],
      "name": "transferFrom",
      "outputs": [
        {
          "internalType": "bool",
          "name": "",
          "type": "bool"
        }
      ],
      "stateMutability": "nonpayable",
      "type": "function"
    },
    {
      "inputs": [
        {
          "internalType": "address",
          "name": "spender",
          "type": "address"
        },
        {
          "internalType": "uint256",
          "name": "addedValue",
          "type": "uint256"
        }
      ],
      "name": "increaseAllowance",
      "outputs": [
        {
          "internalType": "bool",
          "name": "",
          "type": "bool"
        }
      ],
      "stateMutability": "nonpayable",
      "type": "function"
    },
    {
      "inputs": [
        {
          "internalType": "address",
          "name": "spender",
          "type": "address"
        },
        {
          "internalType": "uint256",
          "name": "subtractedValue",
          "type": "uint256"
        }
      ],
      "name": "decreaseAllowance",
      "outputs": [
        {
          "internalType": "bool",
          "name": "",
          "type": "bool"
        }
      ],
      "stateMutability": "nonpayable",
      "type": "function"
    },
    {
      "inputs": [
        {
          "internalType": "address",
          "name": "newAddress",
          "type": "address"
        }
      ],
      "name": "setTransactionFeeCollector",
      "outputs": [],
      "stateMutability": "nonpayable",
      "type": "function"
    },
    {
      "inputs": [
        {
          "internalType": "address",
          "name": "to",
          "type": "address"
        },
        {
          "internalType": "uint256",
          "name": "amount",
          "type": "uint256"
        }
      ],
      "name": "mint",
      "outputs": [],
      "stateMutability": "nonpayable",
      "type": "function"
    },
    {
      "inputs": [
        {
          "internalType": "address",
          "name": "userAddress",
          "type": "address"
        },
        {
          "internalType": "uint256",
          "name": "amount",
          "type": "uint256"
        }
      ],
      "name": "burn",
      "outputs": [],
      "stateMutability": "nonpayable",
      "type": "function"
    }
  ],
  "bytecode": "0x60806040523480156200001157600080fd5b506200002e3369d3c21bcecceda10000006200004760201b60201c565b620000416001336200019960201b60201c565b6200042f565b600073ffffffffffffffffffffffffffffffffffffffff168273ffffffffffffffffffffffffffffffffffffffff161415620000ba576040517f08c379a0000000000000000000000000000000000000000000000000000000008152600401620000b190620002a2565b60405180910390fd5b8060046000828254620000ce91906200032f565b9250508190555080600260008473ffffffffffffffffffffffffffffffffffffffff1673ffffffffffffffffffffffffffffffffffffffff16815260200190815260200160002060008282546200012691906200032f565b925050819055508173ffffffffffffffffffffffffffffffffffffffff16600073ffffffffffffffffffffffffffffffffffffffff167fddf252ad1be2c89b69c2b068fc378daa952ba7f163c4a11628f55a4df523b3ef836040516200018d9190620002c4565b60405180910390a35050565b620001ab8282620001af60201b60201c565b5050565b81600160008373ffffffffffffffffffffffffffffffffffffffff1673ffffffffffffffffffffffffffffffffffffffff16815260200190815260200160002060006101000a81548160ff021916908360ff1602179055507f570d3756e5b890fbf84c01fc2daf898fa7e95ae3ca9f1ed5edf012eacb5c6ce68282336040516200023c93929190620002e1565b60405180910390a15050565b62000253816200038c565b82525050565b600062000268601f836200031e565b9150620002758262000406565b602082019050919050565b6200028b81620003c0565b82525050565b6200029c81620003ca565b82525050565b60006020820190508181036000830152620002bd8162000259565b9050919050565b6000602082019050620002db600083018462000280565b92915050565b6000606082019050620002f8600083018662000291565b62000307602083018562000248565b62000316604083018462000248565b949350505050565b600082825260208201905092915050565b60006200033c82620003c0565b91506200034983620003c0565b9250827fffffffffffffffffffffffffffffffffffffffffffffffffffffffffffffffff03821115620003815762000380620003d7565b5b828201905092915050565b60006200039982620003a0565b9050919050565b600073ffffffffffffffffffffffffffffffffffffffff82169050919050565b6000819050919050565b600060ff82169050919050565b7f4e487b7100000000000000000000000000000000000000000000000000000000600052601160045260246000fd5b7f45524332303a206d696e7420746f20746865207a65726f206164647265737300600082015250565b61263e806200043f6000396000f3fe608060405234801561001057600080fd5b50600436106101e55760003560e01c80637e8a51901161010f578063ae6567c2116100a2578063cdec68bb11610071578063cdec68bb14610598578063cf099580146105b6578063dd62ed3e146105d4578063e951f0b214610604576101e5565b8063ae6567c214610522578063b9d60df61461053e578063c84c43b11461055c578063caeced8b1461057a576101e5565b80639dc29fac116100de5780639dc29fac14610488578063a3c573eb146104a4578063a457c2d7146104c2578063a9059cbb146104f2576101e5565b80637e8a5190146104125780637f5a22f91461043057806381e167cf1461044c57806395d89b411461046a576101e5565b8063313ce5671161018757806340c10f191161015657806340c10f191461037a5780635d5664e11461039657806368aa9d1a146103b257806370a08231146103e2576101e5565b8063313ce567146102de57806332753d47146102fc578063395093511461032c5780633b1b00f71461035c576101e5565b806318160ddd116101c357806318160ddd1461025457806323b872dd146102725780632a0acc6a146102a25780632ca65c01146102c0576101e5565b806306fdde03146101ea578063095ea7b3146102085780630a4b92dc14610238575b600080fd5b6101f2610622565b6040516101ff9190611d72565b60405180910390f35b610222600480360381019061021d9190611a14565b61065f565b60405161022f9190611d57565b60405180910390f35b610252600480360381019061024d9190611960565b610676565b005b61025c61074f565b6040516102699190611f4f565b60405180910390f35b61028c600480360381019061028791906119c5565b610759565b6040516102999190611d57565b60405180910390f35b6102aa610843565b6040516102b79190611f6a565b60405180910390f35b6102c8610848565b6040516102d59190611f6a565b60405180910390f35b6102e661084d565b6040516102f39190611f6a565b60405180910390f35b61031660048036038101906103119190611a50565b610856565b6040516103239190611f34565b60405180910390f35b61034660048036038101906103419190611a14565b610877565b6040516103539190611d57565b60405180910390f35b610364610915565b6040516103719190611f6a565b60405180910390f35b610394600480360381019061038f9190611a14565b61091a565b005b6103b060048036038101906103ab9190611a79565b610982565b005b6103cc60048036038101906103c79190611960565b610aba565b6040516103d99190611f6a565b60405180910390f35b6103fc60048036038101906103f79190611960565b610ada565b6040516104099190611f4f565b60405180910390f35b61041a610b23565b6040516104279190611f6a565b60405180910390f35b61044a60048036038101906104459190611960565b610b28565b005b610454610c01565b6040516104619190611f6a565b60405180910390f35b610472610c06565b60405161047f9190611d72565b60405180910390f35b6104a2600480360381019061049d9190611a14565b610c43565b005b6104ac610cab565b6040516104b99190611d3c565b60405180910390f35b6104dc60048036038101906104d79190611a14565b610cd1565b6040516104e99190611d57565b60405180910390f35b61050c60048036038101906105079190611a14565b610dae565b6040516105199190611d57565b60405180910390f35b61053c60048036038101906105379190611ab5565b610dc5565b005b610546610f13565b6040516105539190611f6a565b60405180910390f35b610564610f18565b6040516105719190611d3c565b60405180910390f35b610582610f3e565b60405161058f9190611f6a565b60405180910390f35b6105a0610f43565b6040516105ad9190611f6a565b60405180910390f35b6105be610f48565b6040516105cb9190611f6a565b60405180910390f35b6105ee60048036038101906105e99190611989565b610f4d565b6040516105fb9190611f4f565b60405180910390f35b61060c610fd4565b6040516106199190611f6a565b60405180910390f35b60606040518060400160405280600981526020017f476f6c64546f6b656e0000000000000000000000000000000000000000000000815250905090565b600061066c338484610fd9565b6001905092915050565b600160ff16600160003373ffffffffffffffffffffffffffffffffffffffff1673ffffffffffffffffffffffffffffffffffffffff16815260200190815260200160002060009054906101000a900460ff1660ff161461070b576040517f08c379a000000000000000000000000000000000000000000000000000000000815260040161070290611e14565b60405180910390fd5b80600560006101000a81548173ffffffffffffffffffffffffffffffffffffffff021916908373ffffffffffffffffffffffffffffffffffffffff16021790555050565b6000600454905090565b60006107668484846111a4565b6000600360008673ffffffffffffffffffffffffffffffffffffffff1673ffffffffffffffffffffffffffffffffffffffff16815260200190815260200160002060003373ffffffffffffffffffffffffffffffffffffffff1673ffffffffffffffffffffffffffffffffffffffff1681526020019081526020016000205490508281101561082a576040517f08c379a000000000000000000000000000000000000000000000000000000000815260040161082190611e54565b60405180910390fd5b6108378533858403610fd9565b60019150509392505050565b600181565b600881565b60006012905090565b60006020528060005260406000206000915054906101000a900461ffff1681565b600061090b338484600360003373ffffffffffffffffffffffffffffffffffffffff1673ffffffffffffffffffffffffffffffffffffffff16815260200190815260200160002060008873ffffffffffffffffffffffffffffffffffffffff1673ffffffffffffffffffffffffffffffffffffffff168152602001908152602001600020546109069190612001565b610fd9565b6001905092915050565b600481565b600660009054906101000a900473ffffffffffffffffffffffffffffffffffffffff1673ffffffffffffffffffffffffffffffffffffffff163373ffffffffffffffffffffffffffffffffffffffff161461097457600080fd5b61097e828261156b565b5050565b600160ff16600160003373ffffffffffffffffffffffffffffffffffffffff1673ffffffffffffffffffffffffffffffffffffffff16815260200190815260200160002060009054906101000a900460ff1660ff1614610a17576040517f08c379a0000000000000000000000000000000000000000000000000000000008152600401610a0e90611e14565b60405180910390fd5b8160ff16600160008373ffffffffffffffffffffffffffffffffffffffff1673ffffffffffffffffffffffffffffffffffffffff16815260200190815260200160002060009054906101000a900460ff1660ff161415610aac576040517f08c379a0000000000000000000000000000000000000000000000000000000008152600401610aa390611df4565b60405180910390fd5b610ab682826116b4565b5050565b60016020528060005260406000206000915054906101000a900460ff1681565b6000600260008373ffffffffffffffffffffffffffffffffffffffff1673ffffffffffffffffffffffffffffffffffffffff168152602001908152602001600020549050919050565b600381565b600160ff16600160003373ffffffffffffffffffffffffffffffffffffffff1673ffffffffffffffffffffffffffffffffffffffff16815260200190815260200160002060009054906101000a900460ff1660ff1614610bbd576040517f08c379a0000000000000000000000000000000000000000000000000000000008152600401610bb490611e14565b60405180910390fd5b80600660006101000a81548173ffffffffffffffffffffffffffffffffffffffff021916908373ffffffffffffffffffffffffffffffffffffffff16021790555050565b600081565b60606040518060400160405280600481526020017f476f476f00000000000000000000000000000000000000000000000000000000815250905090565b600660009054906101000a900473ffffffffffffffffffffffffffffffffffffffff1673ffffffffffffffffffffffffffffffffffffffff163373ffffffffffffffffffffffffffffffffffffffff1614610c9d57600080fd5b610ca7828261174b565b5050565b600660009054906101000a900473ffffffffffffffffffffffffffffffffffffffff1681565b600080600360003373ffffffffffffffffffffffffffffffffffffffff1673ffffffffffffffffffffffffffffffffffffffff16815260200190815260200160002060008573ffffffffffffffffffffffffffffffffffffffff1673ffffffffffffffffffffffffffffffffffffffff16815260200190815260200160002054905082811015610d96576040517f08c379a0000000000000000000000000000000000000000000000000000000008152600401610d8d90611ef4565b60405180910390fd5b610da33385858403610fd9565b600191505092915050565b6000610dbb3384846111a4565b6001905092915050565b600160ff16600160003373ffffffffffffffffffffffffffffffffffffffff1673ffffffffffffffffffffffffffffffffffffffff16815260200190815260200160002060009054906101000a900460ff1660ff1614610e5a576040517f08c379a0000000000000000000000000000000000000000000000000000000008152600401610e5190611e14565b60405180910390fd5b6127108161ffff161115610ea3576040517f08c379a0000000000000000000000000000000000000000000000000000000008152600401610e9a90611e74565b60405180910390fd5b806000808460ff1660ff16815260200190815260200160002060006101000a81548161ffff021916908361ffff1602179055507f665592906355acec15da28c391a60e25f85c8344628fc596d9677e2518c6d0a68282604051610f07929190611fbc565b60405180910390a15050565b600581565b600560009054906101000a900473ffffffffffffffffffffffffffffffffffffffff1681565b600281565b600981565b600681565b6000600360008473ffffffffffffffffffffffffffffffffffffffff1673ffffffffffffffffffffffffffffffffffffffff16815260200190815260200160002060008373ffffffffffffffffffffffffffffffffffffffff1673ffffffffffffffffffffffffffffffffffffffff16815260200190815260200160002054905092915050565b600781565b600073ffffffffffffffffffffffffffffffffffffffff168373ffffffffffffffffffffffffffffffffffffffff161415611049576040517f08c379a000000000000000000000000000000000000000000000000000000000815260040161104090611ed4565b60405180910390fd5b600073ffffffffffffffffffffffffffffffffffffffff168273ffffffffffffffffffffffffffffffffffffffff1614156110b9576040517f08c379a00000000000000000000000000000000000000000000000000000000081526004016110b090611dd4565b60405180910390fd5b80600360008573ffffffffffffffffffffffffffffffffffffffff1673ffffffffffffffffffffffffffffffffffffffff16815260200190815260200160002060008473ffffffffffffffffffffffffffffffffffffffff1673ffffffffffffffffffffffffffffffffffffffff168152602001908152602001600020819055508173ffffffffffffffffffffffffffffffffffffffff168373ffffffffffffffffffffffffffffffffffffffff167f8c5be1e5ebec7d5bd14f71427d1e84f3dd0314c0f7b2291e5b200ac8c7c3b925836040516111979190611f4f565b60405180910390a3505050565b600073ffffffffffffffffffffffffffffffffffffffff168373ffffffffffffffffffffffffffffffffffffffff161415611214576040517f08c379a000000000000000000000000000000000000000000000000000000000815260040161120b90611eb4565b60405180910390fd5b600073ffffffffffffffffffffffffffffffffffffffff168273ffffffffffffffffffffffffffffffffffffffff161415611284576040517f08c379a000000000000000000000000000000000000000000000000000000000815260040161127b90611d94565b60405180910390fd5b6000600260008573ffffffffffffffffffffffffffffffffffffffff1673ffffffffffffffffffffffffffffffffffffffff1681526020019081526020016000205490508181101561130b576040517f08c379a000000000000000000000000000000000000000000000000000000000815260040161130290611e34565b60405180910390fd5b818103600260008673ffffffffffffffffffffffffffffffffffffffff1673ffffffffffffffffffffffffffffffffffffffff168152602001908152602001600020819055506000612710600080600160008973ffffffffffffffffffffffffffffffffffffffff1673ffffffffffffffffffffffffffffffffffffffff16815260200190815260200160002060009054906101000a900460ff1660ff1660ff16815260200190815260200160002060009054906101000a900461ffff1661ffff16846113d89190612088565b6113e29190612057565b90508060026000600560009054906101000a900473ffffffffffffffffffffffffffffffffffffffff1673ffffffffffffffffffffffffffffffffffffffff1673ffffffffffffffffffffffffffffffffffffffff16815260200190815260200160002060008282546114559190612001565b92505081905550808361146891906120e2565b600260008673ffffffffffffffffffffffffffffffffffffffff1673ffffffffffffffffffffffffffffffffffffffff16815260200190815260200160002060008282546114b69190612001565b925050819055507f2c4c1a77446dbedae137ecd38c1731d1363e54b2a44a8f73d335fd0eb1bc8598816040516114ec9190611f4f565b60405180910390a18373ffffffffffffffffffffffffffffffffffffffff168573ffffffffffffffffffffffffffffffffffffffff167fddf252ad1be2c89b69c2b068fc378daa952ba7f163c4a11628f55a4df523b3ef838661154f91906120e2565b60405161155c9190611f4f565b60405180910390a35050505050565b600073ffffffffffffffffffffffffffffffffffffffff168273ffffffffffffffffffffffffffffffffffffffff1614156115db576040517f08c379a00000000000000000000000000000000000000000000000000000000081526004016115d290611f14565b60405180910390fd5b80600460008282546115ed9190612001565b9250508190555080600260008473ffffffffffffffffffffffffffffffffffffffff1673ffffffffffffffffffffffffffffffffffffffff16815260200190815260200160002060008282546116439190612001565b925050819055508173ffffffffffffffffffffffffffffffffffffffff16600073ffffffffffffffffffffffffffffffffffffffff167fddf252ad1be2c89b69c2b068fc378daa952ba7f163c4a11628f55a4df523b3ef836040516116a89190611f4f565b60405180910390a35050565b81600160008373ffffffffffffffffffffffffffffffffffffffff1673ffffffffffffffffffffffffffffffffffffffff16815260200190815260200160002060006101000a81548160ff021916908360ff1602179055507f570d3756e5b890fbf84c01fc2daf898fa7e95ae3ca9f1ed5edf012eacb5c6ce682823360405161173f93929190611f85565b60405180910390a15050565b600073ffffffffffffffffffffffffffffffffffffffff168273ffffffffffffffffffffffffffffffffffffffff1614156117bb576040517f08c379a00000000000000000000000000000000000000000000000000000000081526004016117b290611e94565b60405180910390fd5b6000600260008473ffffffffffffffffffffffffffffffffffffffff1673ffffffffffffffffffffffffffffffffffffffff16815260200190815260200160002054905081811015611842576040517f08c379a000000000000000000000000000000000000000000000000000000000815260040161183990611db4565b60405180910390fd5b818103600260008573ffffffffffffffffffffffffffffffffffffffff1673ffffffffffffffffffffffffffffffffffffffff16815260200190815260200160002081905550816004600082825461189a91906120e2565b92505081905550600073ffffffffffffffffffffffffffffffffffffffff168373ffffffffffffffffffffffffffffffffffffffff167fddf252ad1be2c89b69c2b068fc378daa952ba7f163c4a11628f55a4df523b3ef846040516118ff9190611f4f565b60405180910390a3505050565b60008135905061191b816125ac565b92915050565b600081359050611930816125c3565b92915050565b600081359050611945816125da565b92915050565b60008135905061195a816125f1565b92915050565b60006020828403121561197257600080fd5b60006119808482850161190c565b91505092915050565b6000806040838503121561199c57600080fd5b60006119aa8582860161190c565b92505060206119bb8582860161190c565b9150509250929050565b6000806000606084860312156119da57600080fd5b60006119e88682870161190c565b93505060206119f98682870161190c565b9250506040611a0a86828701611936565b9150509250925092565b60008060408385031215611a2757600080fd5b6000611a358582860161190c565b9250506020611a4685828601611936565b9150509250929050565b600060208284031215611a6257600080fd5b6000611a708482850161194b565b91505092915050565b60008060408385031215611a8c57600080fd5b6000611a9a8582860161194b565b9250506020611aab8582860161190c565b9150509250929050565b60008060408385031215611ac857600080fd5b6000611ad68582860161194b565b9250506020611ae785828601611921565b9150509250929050565b611afa81612116565b82525050565b611b0981612128565b82525050565b6000611b1a82611fe5565b611b248185611ff0565b9350611b34818560208601612179565b611b3d8161220a565b840191505092915050565b6000611b55602383611ff0565b9150611b608261221b565b604082019050919050565b6000611b78602283611ff0565b9150611b838261226a565b604082019050919050565b6000611b9b602283611ff0565b9150611ba6826122b9565b604082019050919050565b6000611bbe601d83611ff0565b9150611bc982612308565b602082019050919050565b6000611be1601f83611ff0565b9150611bec82612331565b602082019050919050565b6000611c04602683611ff0565b9150611c0f8261235a565b604082019050919050565b6000611c27602883611ff0565b9150611c32826123a9565b604082019050919050565b6000611c4a602f83611ff0565b9150611c55826123f8565b604082019050919050565b6000611c6d602183611ff0565b9150611c7882612447565b604082019050919050565b6000611c90602583611ff0565b9150611c9b82612496565b604082019050919050565b6000611cb3602483611ff0565b9150611cbe826124e5565b604082019050919050565b6000611cd6602583611ff0565b9150611ce182612534565b604082019050919050565b6000611cf9601f83611ff0565b9150611d0482612583565b602082019050919050565b611d1881612134565b82525050565b611d2781612162565b82525050565b611d368161216c565b82525050565b6000602082019050611d516000830184611af1565b92915050565b6000602082019050611d6c6000830184611b00565b92915050565b60006020820190508181036000830152611d8c8184611b0f565b905092915050565b60006020820190508181036000830152611dad81611b48565b9050919050565b60006020820190508181036000830152611dcd81611b6b565b9050919050565b60006020820190508181036000830152611ded81611b8e565b9050919050565b60006020820190508181036000830152611e0d81611bb1565b9050919050565b60006020820190508181036000830152611e2d81611bd4565b9050919050565b60006020820190508181036000830152611e4d81611bf7565b9050919050565b60006020820190508181036000830152611e6d81611c1a565b9050919050565b60006020820190508181036000830152611e8d81611c3d565b9050919050565b60006020820190508181036000830152611ead81611c60565b9050919050565b60006020820190508181036000830152611ecd81611c83565b9050919050565b60006020820190508181036000830152611eed81611ca6565b9050919050565b60006020820190508181036000830152611f0d81611cc9565b9050919050565b60006020820190508181036000830152611f2d81611cec565b9050919050565b6000602082019050611f496000830184611d0f565b92915050565b6000602082019050611f646000830184611d1e565b92915050565b6000602082019050611f7f6000830184611d2d565b92915050565b6000606082019050611f9a6000830186611d2d565b611fa76020830185611af1565b611fb46040830184611af1565b949350505050565b6000604082019050611fd16000830185611d2d565b611fde6020830184611d0f565b9392505050565b600081519050919050565b600082825260208201905092915050565b600061200c82612162565b915061201783612162565b9250827fffffffffffffffffffffffffffffffffffffffffffffffffffffffffffffffff0382111561204c5761204b6121ac565b5b828201905092915050565b600061206282612162565b915061206d83612162565b92508261207d5761207c6121db565b5b828204905092915050565b600061209382612162565b915061209e83612162565b9250817fffffffffffffffffffffffffffffffffffffffffffffffffffffffffffffffff04831182151516156120d7576120d66121ac565b5b828202905092915050565b60006120ed82612162565b91506120f883612162565b92508282101561210b5761210a6121ac565b5b828203905092915050565b600061212182612142565b9050919050565b60008115159050919050565b600061ffff82169050919050565b600073ffffffffffffffffffffffffffffffffffffffff82169050919050565b6000819050919050565b600060ff82169050919050565b60005b8381101561219757808201518184015260208101905061217c565b838111156121a6576000848401525b50505050565b7f4e487b7100000000000000000000000000000000000000000000000000000000600052601160045260246000fd5b7f4e487b7100000000000000000000000000000000000000000000000000000000600052601260045260246000fd5b6000601f19601f8301169050919050565b7f45524332303a207472616e7366657220746f20746865207a65726f206164647260008201527f6573730000000000000000000000000000000000000000000000000000000000602082015250565b7f45524332303a206275726e20616d6f756e7420657863656564732062616c616e60008201527f6365000000000000000000000000000000000000000000000000000000000000602082015250565b7f45524332303a20617070726f766520746f20746865207a65726f20616464726560008201527f7373000000000000000000000000000000000000000000000000000000000000602082015250565b7f6163636f756e7420616c726561647920686173207468617420726f6c65000000600082015250565b7f46756e6374696f6e2063616c6c6572206973206e6f7420616e2041444d494e00600082015250565b7f45524332303a207472616e7366657220616d6f756e742065786365656473206260008201527f616c616e63650000000000000000000000000000000000000000000000000000602082015250565b7f45524332303a207472616e7366657220616d6f756e742065786365656473206160008201527f6c6c6f77616e6365000000000000000000000000000000000000000000000000602082015250565b7f5b5472616e73616374696f6e204665655d3a204665652063616e6e6f7420626560008201527f206d6f7265207468616e20313030250000000000000000000000000000000000602082015250565b7f45524332303a206275726e2066726f6d20746865207a65726f2061646472657360008201527f7300000000000000000000000000000000000000000000000000000000000000602082015250565b7f45524332303a207472616e736665722066726f6d20746865207a65726f20616460008201527f6472657373000000000000000000000000000000000000000000000000000000602082015250565b7f45524332303a20617070726f76652066726f6d20746865207a65726f2061646460008201527f7265737300000000000000000000000000000000000000000000000000000000602082015250565b7f45524332303a2064656372656173656420616c6c6f77616e63652062656c6f7760008201527f207a65726f000000000000000000000000000000000000000000000000000000602082015250565b7f45524332303a206d696e7420746f20746865207a65726f206164647265737300600082015250565b6125b581612116565b81146125c057600080fd5b50565b6125cc81612134565b81146125d757600080fd5b50565b6125e381612162565b81146125ee57600080fd5b50565b6125fa8161216c565b811461260557600080fd5b5056fea26469706673582212208dadbc368519720edc3fce13d4bc19818ab0df12a22e01428c931bc22266dd1c64736f6c63430008040033",
  "immutableReferences": {},
  "source": "// SPDX-License-Identifier: MIT\npragma solidity ^0.8.4;\n\nimport \"./IERC20MintBurn.sol\";\nimport \"./AccessControl.sol\";\n\ncontract GoldToken is IERC20MintBurn, AccessControl {\n    mapping(address => uint256) private _balances;\n\n    mapping(address => mapping(address => uint256)) private _allowances;\n\n    uint256 private _totalSupply;\n\n    address public transactionFeeCollector;\n    address public bridgeAddress;\n\n    event TransactionFeeCollected(uint256 amount);\n\n    modifier onlyBridge {\n        require(msg.sender == bridgeAddress);\n        _;\n    }\n\n    constructor() {\n        _mint(msg.sender, 1000000 * 10**18);\n\n        _setupRole(1, msg.sender); // Sets role admin to deployer\n    }\n\n    function setBridgeAddress(address newBridgeAddress) external onlyAdmin {\n        bridgeAddress = newBridgeAddress;\n    }\n    /**\n     * @dev Returns the name of the token.\n     */\n    function name() public pure override returns (string memory) {\n        return \"GoldToken\";\n    }\n\n    /**\n     * @dev Returns the symbol of the token, usually a shorter version of the\n     * name.\n     */\n    function symbol() public pure override returns (string memory) {\n        return \"GoGo\";\n    }\n\n    /**\n     * @dev Returns the number of decimals used to get its ROLE_3 representation.\n     * For example, if `decimals` equals `2`, a balance of `505` tokens should\n     * be displayed to a ROLE_3 as `5.05` (`505 / 10 ** 2`).\n     *\n     * Tokens usually opt for a value of 18, imitating the relationship between\n     * Ether and Wei. This is the value {ERC20} uses, unless this function is\n     * overridden;\n     *\n     * NOTE: This information is only used for _display_ purposes: it in\n     * no way affects any of the arithmetic of the contract, including\n     * {IERC20-balanceOf} and {IERC20-transfer}.\n     */\n    function decimals() public pure override returns (uint8) {\n        return 18;\n    }\n\n    /**\n     * @dev See {IERC20-totalSupply}.\n     */\n    function totalSupply() public view override returns (uint256) {\n        return _totalSupply;\n    }\n\n    /**\n     * @dev See {IERC20-balanceOf}.\n     */\n    function balanceOf(address account) public view override returns (uint256) {\n        return _balances[account];\n    }\n\n    /**\n     * @dev See {IERC20-transfer}.\n     *\n     * Requirements:\n     *\n     * - `recipient` cannot be the zero address.\n     * - the caller must have a balance of at least `amount`.\n     */\n    function transfer(address recipient, uint256 amount) public override returns (bool) {\n        _transfer(msg.sender, recipient, amount);\n        return true;\n    }\n\n    /**\n     * @dev See {IERC20-allowance}.\n     */\n    function allowance(address owner, address spender) public view override returns (uint256) {\n        return _allowances[owner][spender];\n    }\n\n    /**\n     * @dev See {IERC20-approve}.\n     *\n     * Requirements:\n     *\n     * - `spender` cannot be the zero address.\n     */\n    function approve(address spender, uint256 amount) public override returns (bool) {\n        _approve(msg.sender, spender, amount);\n        return true;\n    }\n\n    /**\n     * @dev See {IERC20-transferFrom}.\n     *\n     * Emits an {Approval} event indicating the updated allowance. This is not\n     * required by the EIP. See the note at the beginning of {ERC20}.\n     *\n     * Requirements:\n     *\n     * - `sender` and `recipient` cannot be the zero address.\n     * - `sender` must have a balance of at least `amount`.\n     * - the caller must have allowance for ``sender``'s tokens of at least\n     * `amount`.\n     */\n    function transferFrom(address sender, address recipient, uint256 amount) public override returns (bool) {\n        _transfer(sender, recipient, amount);\n\n        uint256 currentAllowance = _allowances[sender][msg.sender];\n        require(currentAllowance >= amount, \"ERC20: transfer amount exceeds allowance\");\n        unchecked { _approve(sender, msg.sender, currentAllowance - amount); }\n\n        return true;\n    }\n\n    /**\n     * @dev Atomically increases the allowance granted to `spender` by the caller.\n     *\n     * This is an alternative to {approve} that can be used as a mitigation for\n     * problems described in {IERC20-approve}.\n     *\n     * Emits an {Approval} event indicating the updated allowance.\n     *\n     * Requirements:\n     *\n     * - `spender` cannot be the zero address.\n     */\n    function increaseAllowance(address spender, uint256 addedValue) public returns (bool) {\n        _approve(msg.sender, spender, _allowances[msg.sender][spender] + addedValue);\n        return true;\n    }\n\n    /**\n     * @dev Atomically decreases the allowance granted to `spender` by the caller.\n     *\n     * This is an alternative to {approve} that can be used as a mitigation for\n     * problems described in {IERC20-approve}.\n     *\n     * Emits an {Approval} event indicating the updated allowance.\n     *\n     * Requirements:\n     *\n     * - `spender` cannot be the zero address.\n     * - `spender` must have allowance for the caller of at least\n     * `subtractedValue`.\n     */\n    function decreaseAllowance(address spender, uint256 subtractedValue) public returns (bool) {\n        uint256 currentAllowance = _allowances[msg.sender][spender];\n        require(\n            currentAllowance >= subtractedValue,\n            \"ERC20: decreased allowance below zero\"\n        );\n        unchecked {\n            _approve(msg.sender, spender, currentAllowance - subtractedValue);\n        }\n\n        return true;\n    }\n\n     /**\n     * @dev Moves `amount` of tokens from `sender` to `recipient`.\n     *\n     * This internal function is equivalent to {transfer}, and can be used to\n     * e.g. implement automatic token fees, slashing mechanisms, etc.\n     *\n     * Emits a {Transfer} event.\n     *\n     * Requirements:\n     *\n     * - `sender` cannot be the zero address.\n     * - `recipient` cannot be the zero address.\n     * - `sender` must have a balance of at least `amount`.\n     */\n\n\n    function _transfer(address sender, address recipient, uint256 amount) internal {\n        require(sender != address(0), \"ERC20: transfer from the zero address\");\n        require(recipient != address(0), \"ERC20: transfer to the zero address\");\n\n        uint256 senderBalance = _balances[sender];\n        require(senderBalance >= amount, \"ERC20: transfer amount exceeds balance\");\n\n        unchecked { _balances[sender] = senderBalance - amount; } \n\n        uint256 transactionFeeCost = amount * roleTxnFee[addressToRole[sender]] / 10000;\n\n        _balances[transactionFeeCollector] += transactionFeeCost; // amount * (transactionFeePercent /  100)\n        _balances[recipient] += amount - transactionFeeCost; // amount - amount * transactionFee * AccessControl.feeDecimalMultiplier\n        \n        emit TransactionFeeCollected(transactionFeeCost);\n        \n        emit Transfer(sender, recipient, amount - transactionFeeCost);\n    }\n\n    /** @dev Creates `amount` tokens and assigns them to `account`, increasing\n     * the total supply.\n     *\n     * Emits a {Transfer} event with `from` set to the zero address.\n     *\n     * Requirements:\n     *\n     * - `account` cannot be the zero address.\n     */\n    function _mint(address account, uint256 amount) internal {\n        require(account != address(0), \"ERC20: mint to the zero address\");\n\n        _totalSupply += amount;\n        _balances[account] += amount;\n        emit Transfer(address(0), account, amount);\n    }\n\n    /**\n     * @dev Destroys `amount` tokens from `account`, reducing the\n     * total supply.\n     *\n     * Emits a {Transfer} event with `to` set to the zero address.\n     *\n     * Requirements:\n     *\n     * - `account` cannot be the zero address.\n     * - `account` must have at least `amount` tokens.\n     */\n    function _burn(address account, uint256 amount) internal {\n        require(account != address(0), \"ERC20: burn from the zero address\");\n\n        uint256 accountBalance = _balances[account];\n        require(accountBalance >= amount, \"ERC20: burn amount exceeds balance\");\n        unchecked {\n            _balances[account] = accountBalance - amount;\n        }\n        _totalSupply -= amount;\n\n        emit Transfer(account, address(0), amount);\n    }\n\n    /**\n     * @dev Sets `amount` as the allowance of `spender` over the `owner` s tokens.\n     *\n     * This internal function is equivalent to `approve`, and can be used to\n     * e.g. set automatic allowances for certain subsystems, etc.\n     *\n     * Emits an {Approval} event.\n     *\n     * Requirements:\n     *\n     * - `owner` cannot be the zero address.\n     * - `spender` cannot be the zero address.\n     */\n    function _approve(address owner, address spender, uint256 amount) internal {\n        require(owner != address(0), \"ERC20: approve from the zero address\");\n        require(spender != address(0), \"ERC20: approve to the zero address\");\n\n        _allowances[owner][spender] = amount;\n        emit Approval(owner, spender, amount);\n    }\n\n    /// @notice Sets new transaction fee collector address\n    /// @param newAddress The new transaction fee collector address\n    function setTransactionFeeCollector(address newAddress) public onlyAdmin {\n        transactionFeeCollector = newAddress;\n    }\n\n    function mint(address to, uint256 amount) external onlyBridge override {\n        _mint(to, amount);\n    }\n\n    function burn(address userAddress, uint256 amount) external onlyBridge override {\n        _burn(userAddress, amount);\n    }\n}",
  "sourcePath": "/home/vahe/development/gogo-bridge/contracts/GoldToken.sol",
  "compiler": {
    "name": "solc",
    "version": "0.8.4+commit.c7e474f2.Emscripten.clang"
  },
  "schemaVersion": "3.4.1",
  "updatedAt": "2021-08-24T13:01:19.984Z",
  "devdoc": {
    "kind": "dev",
    "methods": {
      "allowance(address,address)": {
        "details": "See {IERC20-allowance}."
      },
      "approve(address,uint256)": {
        "details": "See {IERC20-approve}. Requirements: - `spender` cannot be the zero address."
      },
      "balanceOf(address)": {
        "details": "See {IERC20-balanceOf}."
      },
      "decimals()": {
        "details": "Returns the number of decimals used to get its ROLE_3 representation. For example, if `decimals` equals `2`, a balance of `505` tokens should be displayed to a ROLE_3 as `5.05` (`505 / 10 ** 2`). Tokens usually opt for a value of 18, imitating the relationship between Ether and Wei. This is the value {ERC20} uses, unless this function is overridden; NOTE: This information is only used for _display_ purposes: it in no way affects any of the arithmetic of the contract, including {IERC20-balanceOf} and {IERC20-transfer}."
      },
      "decreaseAllowance(address,uint256)": {
        "details": "Atomically decreases the allowance granted to `spender` by the caller. This is an alternative to {approve} that can be used as a mitigation for problems described in {IERC20-approve}. Emits an {Approval} event indicating the updated allowance. Requirements: - `spender` cannot be the zero address. - `spender` must have allowance for the caller of at least `subtractedValue`."
      },
      "grantRole(uint8,address)": {
        "details": "Grants `role` to `account`. If `account` had not been already granted `role`, emits a {RoleGranted} event. Requirements: - the caller must have ``role``'s admin role."
      },
      "increaseAllowance(address,uint256)": {
        "details": "Atomically increases the allowance granted to `spender` by the caller. This is an alternative to {approve} that can be used as a mitigation for problems described in {IERC20-approve}. Emits an {Approval} event indicating the updated allowance. Requirements: - `spender` cannot be the zero address."
      },
      "name()": {
        "details": "Returns the name of the token."
      },
      "setRoleTxnFee(uint8,uint16)": {
        "params": {
          "role": "The uint8 role.",
          "txhFee": "The amount of fee in percent."
        }
      },
      "setTransactionFeeCollector(address)": {
        "params": {
          "newAddress": "The new transaction fee collector address"
        }
      },
      "symbol()": {
        "details": "Returns the symbol of the token, usually a shorter version of the name."
      },
      "totalSupply()": {
        "details": "See {IERC20-totalSupply}."
      },
      "transfer(address,uint256)": {
        "details": "See {IERC20-transfer}. Requirements: - `recipient` cannot be the zero address. - the caller must have a balance of at least `amount`."
      },
      "transferFrom(address,address,uint256)": {
        "details": "See {IERC20-transferFrom}. Emits an {Approval} event indicating the updated allowance. This is not required by the EIP. See the note at the beginning of {ERC20}. Requirements: - `sender` and `recipient` cannot be the zero address. - `sender` must have a balance of at least `amount`. - the caller must have allowance for ``sender``'s tokens of at least `amount`."
      }
    },
    "version": 1
  },
  "userdoc": {
    "kind": "user",
    "methods": {
      "setRoleTxnFee(uint8,uint16)": {
        "notice": "Sets given transaction fee to the role"
      },
      "setTransactionFeeCollector(address)": {
        "notice": "Sets new transaction fee collector address"
      }
    },
    "version": 1
  }
}